{
  "contractName": "kground",
  "abi": [
    {
      "inputs": [
        {
          "internalType": "string",
          "name": "_phone",
          "type": "string"
        },
        {
          "internalType": "string",
          "name": "_pass",
          "type": "string"
        },
        {
          "internalType": "string",
          "name": "_username",
          "type": "string"
        },
        {
          "internalType": "string",
          "name": "_nickname",
          "type": "string"
        },
        {
          "internalType": "string",
          "name": "_refferal",
          "type": "string"
        },
        {
          "internalType": "string",
          "name": "_numeric6",
          "type": "string"
        },
        {
          "internalType": "string",
          "name": "_wellet",
          "type": "string"
        }
      ],
      "name": "add_user",
      "outputs": [],
      "stateMutability": "nonpayable",
      "type": "function"
    },
    {
      "inputs": [
        {
          "internalType": "string",
          "name": "_phone",
          "type": "string"
        }
      ],
      "name": "view_info",
      "outputs": [
        {
          "internalType": "string",
          "name": "",
          "type": "string"
        },
        {
          "internalType": "string",
          "name": "",
          "type": "string"
        },
        {
          "internalType": "string",
          "name": "",
          "type": "string"
        },
        {
          "internalType": "string",
          "name": "",
          "type": "string"
        },
        {
          "internalType": "string",
          "name": "",
          "type": "string"
        },
        {
          "internalType": "string",
          "name": "",
          "type": "string"
        },
        {
          "internalType": "string",
          "name": "",
          "type": "string"
        }
      ],
      "stateMutability": "view",
      "type": "function",
      "constant": true
    }
  ],
  "bytecode": "0x608060405234801561001057600080fd5b50610f7f806100206000396000f3fe608060405234801561001057600080fd5b50600436106100365760003560e01c80631716b0111461003b578063ba1428ee14610071575b600080fd5b610055600480360381019061005091906108d4565b61008d565b604051610068979695949392919061099c565b60405180910390f35b61008b60048036038101906100869190610a3c565b61057a565b005b6060806060806060806060600080896040516100a99190610bde565b908152602001604051809103902060010180546100c590610c24565b80601f01602080910402602001604051908101604052809291908181526020018280546100f190610c24565b801561013e5780601f106101135761010080835404028352916020019161013e565b820191906000526020600020905b81548152906001019060200180831161012157829003601f168201915b505050505090506000808a6040516101569190610bde565b9081526020016040518091039020600201805461017290610c24565b80601f016020809104026020016040519081016040528092919081815260200182805461019e90610c24565b80156101eb5780601f106101c0576101008083540402835291602001916101eb565b820191906000526020600020905b8154815290600101906020018083116101ce57829003601f168201915b505050505090506000808b6040516102039190610bde565b9081526020016040518091039020600301805461021f90610c24565b80601f016020809104026020016040519081016040528092919081815260200182805461024b90610c24565b80156102985780601f1061026d57610100808354040283529160200191610298565b820191906000526020600020905b81548152906001019060200180831161027b57829003601f168201915b505050505090506000808c6040516102b09190610bde565b908152602001604051809103902060040180546102cc90610c24565b80601f01602080910402602001604051908101604052809291908181526020018280546102f890610c24565b80156103455780601f1061031a57610100808354040283529160200191610345565b820191906000526020600020905b81548152906001019060200180831161032857829003601f168201915b505050505090506000808d60405161035d9190610bde565b9081526020016040518091039020600501805461037990610c24565b80601f01602080910402602001604051908101604052809291908181526020018280546103a590610c24565b80156103f25780601f106103c7576101008083540402835291602001916103f2565b820191906000526020600020905b8154815290600101906020018083116103d557829003601f168201915b505050505090506000808e60405161040a9190610bde565b9081526020016040518091039020600601805461042690610c24565b80601f016020809104026020016040519081016040528092919081815260200182805461045290610c24565b801561049f5780601f106104745761010080835404028352916020019161049f565b820191906000526020600020905b81548152906001019060200180831161048257829003601f168201915b505050505090506000808f6040516104b79190610bde565b908152602001604051809103902060070180546104d390610c24565b80601f01602080910402602001604051908101604052809291908181526020018280546104ff90610c24565b801561054c5780601f106105215761010080835404028352916020019161054c565b820191906000526020600020905b81548152906001019060200180831161052f57829003601f168201915b50505050509050868686868686869d509d509d509d509d509d509d5050505050505050919395979092949650565b6000808860405161058b9190610bde565b908152602001604051809103902060000160009054906101000a900460ff1660ff16146105ed576040517f08c379a00000000000000000000000000000000000000000000000000000000081526004016105e490610ca1565b60405180910390fd5b866000886040516105fe9190610bde565b9081526020016040518091039020600101908161061b9190610e77565b508560008860405161062d9190610bde565b9081526020016040518091039020600201908161064a9190610e77565b508460008860405161065c9190610bde565b908152602001604051809103902060030190816106799190610e77565b508360008860405161068b9190610bde565b908152602001604051809103902060040190816106a89190610e77565b50826000886040516106ba9190610bde565b908152602001604051809103902060050190816106d79190610e77565b50816000886040516106e99190610bde565b908152602001604051809103902060060190816107069190610e77565b50806000886040516107189190610bde565b908152602001604051809103902060070190816107359190610e77565b5060016000886040516107489190610bde565b908152602001604051809103902060000160006101000a81548160ff021916908360ff16021790555050505050505050565b6000604051905090565b600080fd5b600080fd5b600080fd5b600080fd5b6000601f19601f8301169050919050565b7f4e487b7100000000000000000000000000000000000000000000000000000000600052604160045260246000fd5b6107e182610798565b810181811067ffffffffffffffff82111715610800576107ff6107a9565b5b80604052505050565b600061081361077a565b905061081f82826107d8565b919050565b600067ffffffffffffffff82111561083f5761083e6107a9565b5b61084882610798565b9050602081019050919050565b82818337600083830152505050565b600061087761087284610824565b610809565b90508281526020810184848401111561089357610892610793565b5b61089e848285610855565b509392505050565b600082601f8301126108bb576108ba61078e565b5b81356108cb848260208601610864565b91505092915050565b6000602082840312156108ea576108e9610784565b5b600082013567ffffffffffffffff81111561090857610907610789565b5b610914848285016108a6565b91505092915050565b600081519050919050565b600082825260208201905092915050565b60005b8381101561095757808201518184015260208101905061093c565b60008484015250505050565b600061096e8261091d565b6109788185610928565b9350610988818560208601610939565b61099181610798565b840191505092915050565b600060e08201905081810360008301526109b6818a610963565b905081810360208301526109ca8189610963565b905081810360408301526109de8188610963565b905081810360608301526109f28187610963565b90508181036080830152610a068186610963565b905081810360a0830152610a1a8185610963565b905081810360c0830152610a2e8184610963565b905098975050505050505050565b600080600080600080600060e0888a031215610a5b57610a5a610784565b5b600088013567ffffffffffffffff811115610a7957610a78610789565b5b610a858a828b016108a6565b975050602088013567ffffffffffffffff811115610aa657610aa5610789565b5b610ab28a828b016108a6565b965050604088013567ffffffffffffffff811115610ad357610ad2610789565b5b610adf8a828b016108a6565b955050606088013567ffffffffffffffff811115610b0057610aff610789565b5b610b0c8a828b016108a6565b945050608088013567ffffffffffffffff811115610b2d57610b2c610789565b5b610b398a828b016108a6565b93505060a088013567ffffffffffffffff811115610b5a57610b59610789565b5b610b668a828b016108a6565b92505060c088013567ffffffffffffffff811115610b8757610b86610789565b5b610b938a828b016108a6565b91505092959891949750929550565b600081905092915050565b6000610bb88261091d565b610bc28185610ba2565b9350610bd2818560208601610939565b80840191505092915050565b6000610bea8284610bad565b915081905092915050565b7f4e487b7100000000000000000000000000000000000000000000000000000000600052602260045260246000fd5b60006002820490506001821680610c3c57607f821691505b602082108103610c4f57610c4e610bf5565b5b50919050565b7f4578697374204944000000000000000000000000000000000000000000000000600082015250565b6000610c8b600883610928565b9150610c9682610c55565b602082019050919050565b60006020820190508181036000830152610cba81610c7e565b9050919050565b60008190508160005260206000209050919050565b60006020601f8301049050919050565b600082821b905092915050565b600060088302610d237fffffffffffffffffffffffffffffffffffffffffffffffffffffffffffffffff82610ce6565b610d2d8683610ce6565b95508019841693508086168417925050509392505050565b6000819050919050565b6000819050919050565b6000610d74610d6f610d6a84610d45565b610d4f565b610d45565b9050919050565b6000819050919050565b610d8e83610d59565b610da2610d9a82610d7b565b848454610cf3565b825550505050565b600090565b610db7610daa565b610dc2818484610d85565b505050565b5b81811015610de657610ddb600082610daf565b600181019050610dc8565b5050565b601f821115610e2b57610dfc81610cc1565b610e0584610cd6565b81016020851015610e14578190505b610e28610e2085610cd6565b830182610dc7565b50505b505050565b600082821c905092915050565b6000610e4e60001984600802610e30565b1980831691505092915050565b6000610e678383610e3d565b9150826002028217905092915050565b610e808261091d565b67ffffffffffffffff811115610e9957610e986107a9565b5b610ea38254610c24565b610eae828285610dea565b600060209050601f831160018114610ee15760008415610ecf578287015190505b610ed98582610e5b565b865550610f41565b601f198416610eef86610cc1565b60005b82811015610f1757848901518255600182019150602085019450602081019050610ef2565b86831015610f345784890151610f30601f891682610e3d565b8355505b6001600288020188555050505b50505050505056fea26469706673582212204e84fca749e402cad217d874ba1a5126cdc67d4be067955bb35501e3cb8688d564736f6c63430008130033",
  "immutableReferences": {},
  "source": "// SPDX-License-Identifier: MIT\r\npragma solidity >=0.4.0 < 0.9.0;\r\n//  \r\n\r\n//    \r\ncontract kground{\r\n    //     \r\n\r\n    //      \r\n    // mysql table  \r\n    struct info{\r\n        //     \r\n        uint8 state;\r\n        string phone;\r\n        string pass;\r\n        string username;\r\n        string nickname;\r\n        string refferal;\r\n        string numeric6;\r\n        string wellet;\r\n    }\r\n\r\n    mapping (string => info) internal users;\r\n\r\n    //     \r\n    function add_user(\r\n        string memory _phone, \r\n        string memory _pass, \r\n        string memory _username, \r\n        string memory _nickname,\r\n        string memory _refferal, \r\n        string memory _numeric6, \r\n        string memory _wellet\r\n       ) public {\r\n        //      \r\n        // state 0    . \r\n        // state 0    .\r\n        require(users[_phone].state == 0, 'Exist ID');\r\n        // mapping  _phone   value \r\n        users[_phone].phone = _phone;\r\n        users[_phone].pass = _pass;\r\n        users[_phone].username = _username;\r\n        users[_phone].nickname = _nickname;\r\n        users[_phone].refferal = _refferal;\r\n        users[_phone].numeric6 = _numeric6;\r\n        users[_phone].wellet = _wellet;\r\n        users[_phone].state = 1;\r\n    }\r\n\r\n    //      \r\n    function view_info(\r\n        string memory _phone\r\n    ) public view returns(\r\n        string memory, \r\n        string memory, \r\n        string memory, \r\n        string memory,\r\n        string memory, \r\n        string memory, \r\n        string memory\r\n    ){\r\n        string memory phone = users[_phone].phone;\r\n        string memory pass = users[_phone].pass;\r\n        string memory username = users[_phone].username;\r\n        string memory nickname = users[_phone].nickname;\r\n        string memory refferal = users[_phone].refferal;\r\n        string memory numeric6 = users[_phone].numeric6;\r\n        string memory wellet = users[_phone].wellet;\r\n\r\n        return (phone, pass, username, nickname, refferal,numeric6,wellet);\r\n    }\r\n\r\n\r\n\r\n}\r\n",
  "sourcePath": "C:\\apps\\kground1\\contracts\\kground.sol",
  "compiler": {
    "name": "solc",
    "version": "0.8.19+commit.7dd6d404.Emscripten.clang"
  },
  "schemaVersion": "3.4.14",
  "updatedAt": "2023-06-09T09:51:50.218Z",
  "networkType": "ethereum",
  "devdoc": {
    "kind": "dev",
    "methods": {},
    "version": 1
  },
  "userdoc": {
    "kind": "user",
    "methods": {},
    "version": 1
  }
}